:020000040800F2
:10000000004000204509000895090008B1250008B6
:1000100095090008950900089509000800000000EE
:10002000000000000000000000000000950900082A
:10003000950900080000000095090008B92500088E
:100040009509000895090008950900089509000818
:100050009509000895090008950900089509000808
:1000600095090008950900089509000895090008F8
:1000700095090008950900089509000895090008E8
:100080009509000895090008512500089509000800
:1000900095090008950900089509000895090008C8
:1000A000752500085D2500089509000895090008D8
:1000B00095090008000000000000000095090008F4
:1000C000950900089509000895090008000000003E
:1000D0009509000895090008950900089509000888
:1000E000950900089509000895090008000000001E
:1000F0000000000000000000000000000000000000
:100100000000000000000000000000009509000849
:100110000000000000000000950900080000000039
:1001200000000000000000000000000000000000CF
:1001300000000000000000000000000000000000BF
:100140009509000895090008000000000000000063
:10015000000000000000000000000000000000009F
:1001600095090008950900089509000895090008F7
:1001700095090008000000000000000000000000D9
:080180000000000095090008D1
:1001880010B5054C237833B9044B13B10448AFF3C9
:1001980000800123237010BD8804002000000000A7
:1001A8006479000808B5034B1BB103490348AFF352
:1001B800008008BD000000008C040020647900085D
:1001C80070B54FF0FF0C4CF4E06C1CEA11541DBFE5
:1001D8001CEA135594EA0C0F95EA0C0F00F0DEF8B0
:1001E8002C4481EA030621EA4C5123EA4C5350EA95
:1001F800013518BF52EA033541F4801143F48013E6
:1002080038D0A0FB02CE4FF00005E1FB02E506F076
:100218000042E0FB03E54FF00006E1FB03569CF0CB
:10022800000F18BF4EF0010EA4F1FF04B6F5007FD1
:1002380064F5407404D25FEA4E0E6D4146EB060643
:1002480042EAC62141EA55514FEAC52040EA5E50CC
:100258004FEACE2EB4F1FD0C88BFBCF5E06F1ED876
:10026800BEF1004F08BF5FEA500E50F1000041EBAD
:10027800045170BD06F0004646EA010140EA02005A
:1002880081EA0301B4EB5C04C2BFD4EB0C0541EA7C
:10029800045170BD41F480114FF0000E013C00F391
:1002A800AB8014F1360FDEBF002001F0004170BDB5
:1002B800C4F10004203C35DA0C341BDC04F11404CE
:1002C800C4F1200500FA05F320FA04F001FA05F25A
:1002D80040EA020001F0004221F0004110EBD37027
:1002E80021FA04F642EB06015EEA430E08BF20EA53
:1002F800D37070BDC4F10C04C4F1200500FA04F3F6
:1003080020FA05F001FA04F240EA020001F0004187
:1003180010EBD37041F100015EEA430E08BF20EAFA
:10032800D37070BDC4F1200500FA05F24EEA020E42
:1003380020FA04F301FA05F243EA020321FA04F071
:1003480001F0004121FA04F220EA020000EBD37028
:100358005EEA430E08BF20EAD37070BD94F0000F28
:100368000FD101F00046400041EB010111F4801F5C
:1003780008BF013CF7D041EA060195F0000F18BF0D
:10038800704703F00046520043EB030313F4801F49
:1003980008BF013DF7D043EA0603704794EA0C0F03
:1003A8000CEA135518BF95EA0C0F0CD050EA410619
:1003B80018BF52EA4306D1D181EA030101F0004196
:1003C8004FF0000070BD50EA410606BF10461946BE
:1003D80052EA430619D094EA0C0F02D150EA0136CA
:1003E80013D195EA0C0F05D152EA03361CBF10460B
:1003F80019460AD181EA030101F0004141F0FE41AA
:1004080041F470014FF0000070BD41F0FE4141F42D
:10041800780170BD81F0004102E000BF83F0004325
:1004280030B54FEA41044FEA430594EA050F08BF87
:1004380090EA020F1FBF54EA000C55EA020C7FEA4B
:10044800645C7FEA655C00F0E2804FEA5454D4EBC8
:100458005555B8BF6D420CDD2C4480EA020281EA92
:10046800030382EA000083EA010180EA020281EACA
:100478000303362D88BF30BD11F0004F4FEA01311C
:100488004FF4801C4CEA113102D0404261EB41012B
:1004980013F0004F4FEA03334CEA133302D05242B1
:1004A80063EB430394EA050F00F0A780A4F101046D
:1004B800D5F1200E0DDB02FA0EFC22FA05F28018A7
:1004C80041F1000103FA0EF2801843FA05F359418D
:1004D8000EE0A5F120050EF1200E012A03FA0EFC0C
:1004E80028BF4CF0020C43FA05F3C01851EBE37136
:1004F80001F0004507D54FF0000EDCF1000C7EEB53
:1005080000006EEB0101B1F5801F1BD3B1F5001F90
:100518000CD349085FEA30004FEA3C0C04F10104AF
:100528004FEA445212F5800F80F09A80BCF1004FD8
:1005380008BF5FEA500C50F1000041EB045141EA5A
:10054800050130BD5FEA4C0C404141EB0101013C23
:1005580028BFB1F5801FE9D291F0000F04BF014612
:100568000020B1FA81F308BF2033A3F10B03B3F1E4
:1005780020020CDA0C3208DD02F1140CC2F10C0274
:1005880001FA0CF021FA02F10CE002F11402D8BFD2
:10059800C2F1200C01FA02F120FA0CFCDCBF41EA9E
:1005A8000C019040E41AA2BF01EB0451294330BD6D
:1005B8006FEA04041F3C1CDA0C340EDC04F114044A
:1005C800C4F1200220FA04F001FA02F340EA030021
:1005D80021FA04F345EA030130BDC4F10C04C4F167
:1005E800200220FA02F001FA04F340EA0300294647
:1005F80030BD21FA04F0294630BD94F0000F83F491
:10060800801306BF81F480110134013D4EE77FEA73
:10061800645C18BF7FEA655C29D094EA050F08BFBF
:1006280090EA020F05D054EA000C04BF19461046A0
:1006380030BD91EA030F1EBF0021002030BD5FEAE4
:10064800545C05D14000494128BF41F0004130BD0C
:1006580014F580043CBF01F5801130BD01F0004560
:1006680045F0FE4141F470014FF0000030BD7FEAD3
:10067800645C1ABF194610467FEA655C1CBF0B46CE
:10068800024650EA013406BF52EA033591EA030FE5
:1006980041F4002130BD00BF90F0000F04BF0021DD
:1006A800704730B54FF4806404F132044FF0000510
:1006B8004FF0000150E700BF90F0000F04BF002189
:1006C800704730B54FF4806404F1320410F00045EF
:1006D80048BF40424FF000013EE700BF42004FEAEA
:1006E800E2014FEA31014FEA02701FBF12F07F4367
:1006F80093F07F4F81F06051704732F07F4208BF1E
:10070800704793F07F4F04BF41F40021704730B524
:100718004FF4607401F0004521F000411CE700BF70
:1007280050EA010208BF704730B54FF000050AE0F3
:1007380050EA010208BF704730B511F0004502D5F4
:10074800404261EB41014FF4806404F132045FEAF6
:10075800915C3FF4D8AE4FF003025FEADC0C18BF9F
:1007680003325FEADC0C18BF033202EBDC02C2F191
:10077800200300FA03FC20FA02F001FA03FE40EA23
:100788000E0021FA02F11444BDE600BF4FF0FF3C11
:1007980006E000BF4FF0010C02E000BF4FF0010C73
:1007A8004DF804CD4FEA410C7FEA6C5C4FEA430CEC
:1007B80018BF7FEA6C5C1BD001B050EA410C0CBF3B
:1007C80052EA430C91EA030F02BF90EA020F00209D
:1007D800704710F1000F91EA030F58BF994208BF04
:1007E80090422CBFD8176FEAE37040F001007047C1
:1007F8004FEA410C7FEA6C5C02D150EA013C07D118
:100808004FEA430C7FEA6C5CD6D152EA033CD3D062
:100818005DF8040B704700BF8446104662468C465C
:100828001946634600E000BF01B5FFF7B7FF00288F
:1008380048BF10F1000F01BD4DF808EDFFF7F4FFB8
:100848000CBF012000205DF808FB00BF4DF808ED43
:10085800FFF7EAFF34BF012000205DF808FB00BF66
:100868004DF808EDFFF7E0FF94BF012000205DF888
:1008780008FB00BF4DF808EDFFF7CEFF94BF01203D
:1008880000205DF808FB00BF4DF808EDFFF7C4FF36
:1008980034BF012000205DF808FB00BF4FEA410289
:1008A800B2F1E04324BFB3F5001CDCF1FE5C0DD9C6
:1008B80001F0004C4FEAC0024CEA5070B2F1004F10
:1008C80040EB830008BF20F00100704711F0804F13
:1008D80021D113F13872BCBF01F00040704741F4D8
:1008E80080114FEA5252C2F11802C2F1200C10FADC
:1008F8000CF320FA02F018BF40F001004FEAC123C0
:100908004FEAD32303FA0CFC40EA0C0023FA02F363
:100918004FEA4303CCE77FEA625307D150EA013339
:100928001EBF4FF0FE4040F44000704701F0004009
:1009380040F0FE4040F40000704700BFDFF834D0BC
:1009480001F0FCFF0C480D490D4A002302E0D45881
:10095800C4500433C4188C42F9D30A4A0A4C002301
:1009680001E013600432A242FBD306F0CBFF00F093
:100978007BF8FEE7004000200000002084040020EF
:100988001C7C00088804002030080020FEE70000D6
:1009980070B5DCF8302084B064460A2603460D465C
:1009A8008DF80F300096104601230DF10F025021EB
:1009B80003F036F8206B009601232A46502103F0F5
:1009C800ADF904B070BD00BF10B59EB0002134224F
:1009D80010A8CDE90111CDE9031108910091099101
:1009E8000C9106F0B3FF03204FF48031CDE90601E6
:1009F80001201021CDE90A0102244FF480324FF47E
:100A0800E01306A8CDE90D420F9303F0E1FA08B10F
:100A180072B6FEE70F220223CDE9002304900022DC
:100A28004FF4806321466846CDE9022303F0B8FD00
:100A380008B172B6FEE79FED0A7B41F221024FF43E
:100A4800807310A88DED127B1092189303F008FFA5
:100A580008B172B6FEE71EB010BD00BFAFF300804C
:100A680000000000000000002DE9F04F2DED028B82
:100A7800B9B00023AD48AE49AE4E2E904FF07F5529
:100A88000024E12225950A2044AD309334932D9318
:100A9800319329932A9332933393A74B2492CDE928
:100AA80026242B91239337958DF8D840ADF8D6405E
:100AB80028902F962C9601F06FFF04F0C5FFFFF7E2
:100AC80083FFCDE91844CDE91A449C4B1C945A691C
:100AD8009B489C4D42F480025A615A6902F4800294
:100AE8000292029A5A6942F400225A615A6902F43F
:100AF80000220392039A5A6942F400325A615A69F1
:100B080002F400320492049A5A6942F480225A612B
:100B18005B6903F4802305934FF400512246059B3B
:100B280002F08CFD884822464FF4E05102F086FD21
:100B38004FF0000A4FF400520123814818A94FF0E2
:100B4800000BCDE91823CDE91AAB02F093FC4FF462
:100B5800E0520123CDE918237B480323022218A978
:100B6800CDE91A2302F086FC2822214618A806F0AF
:100B7800EDFE4FF480334FF0A04CC5E900C30223CB
:100B8800EB610122002301274FF020094FF00408F0
:100B9800C5E90A232C832846CDE91044CDE912443F
:100BA800CDE91444AC602F6185F82040C5F80C905D
:100BB80085F83040C5F814806F6301F063FF08B111
:100BC80072B6FEE70323CDE91C001B90ADF87C004C
:100BD8001E930022402318A92846CDE91877CDE9AD
:100BE8002023CDF868808DF87E7002F0D7F908B11F
:100BF80072B6FEE70722022318A92846CDE9182372
:100C080002F0CCF908B172B6FEE70622032318A950
:100C18002846CDE9182302F0C1F908B172B6FEE7FB
:100C280002220123CDE9102310A906220023284619
:100C3800CDE914ABCDE9122302F018F808B172B669
:100C4800FEE708220223284610A9CDE9102302F066
:100C58000DF8044608B172B6FEE73C4D0A90CDE99E
:100C68001000CDE91200CDE91400CDE90B00CDE963
:100C78000D00CDE907000690169001462C2218A811
:100C880006F064FE324B6F612B604FF416674FF429
:100C980080732846C5E90373C5F808906C60AC6199
:100CA80003F05AFF08B172B6FEE7284603F0D2FFF8
:100CB80008B172B6FEE7062210230AA92846CDE934
:100CC8000A2304F043F808B172B6FEE708907022D0
:100CD800002306A92846CDE9062304F02BFA08B11B
:100CE80072B6FEE760244FF49665CDE91045002200
:100CF800002400251548169210A9CDE91245CDE922
:100D0800144504F0EFF808B172B6FEE70F48042264
:100D180010A904F0E7F808B172B6FEE70B480822FC
:100D280010A904F0DFF8A8B172B6FEE7B4A2913AB0
:100D3800008C394AF80400200000C040001002402E
:100D480000040048A8040020000800484C050020C2
:100D5800002C01404FF0700840F65F1945480C22FE
:100D680010A9CDE9108904F0BDF808B172B6FEE704
:100D78004FF400624FF48063CDE918234FF480727A
:100D88000023CDE91A234FF480520023CDE91C2318
:100D9800229003220023374818A9CDE92045CDE940
:100DA8001E2304F0FFF9044608B172B6FEE7314885
:100DB80001F0F2FC01F0DEF82F493048B46040F24F
:100DC8000B23C6E900130123C6E90444C6E9064417
:100DD8003462F36002F0D0FD014608B172B6FEE756
:100DE800264803F087F8014608B172B6FEE72348A3
:100DF80003F0AAF808B172B6FEE7214B214A186140
:100E0800C3E90200C3E90600C3E908004FF4E1356D
:100E18000C241846C3E900255C6104F0B9FC08B14C
:100E280072B6FEE7184B194A1861C3E90200C3E914
:100E38000600C3E9080018465D605C611A6004F0AA
:100E4800A7FC08B172B6FEE71148124A4FF4E13325
:100E5800C0E900230023C0E90233C0E90633C0E932
:100E6800083303610C23436104F092FC044698B1F3
:100E780072B6FEE74C05002000540040F80400203C
:100E8800980500200038014020060020004400405A
:100E9800A80600200048004001220421182002F082
:100EA8007DFA182002F0B8FA22462146192002F0ED
:100EB80075FA192002F0B0FA22460221122002F037
:100EC8006DFA0A24122002F0A7FA3D25022318AA77
:100ED80050212F980094ADF8605002F0A1FD132026
:100EE80001F07EFD0DF18C0C284636A9FFF750FD68
:100EF80040F23B66022318AA50212F980094ADF8BF
:100F0800606002F08DFD40F63D46022318AA50218C
:100F18002F980094ADF8606002F082FD072001F080
:100F28005FFD0DF18C0C36A92846FFF731FD07202F
:100F380001F056FD35250AAA012350212F98009467
:100F48008DF8285002F06CFD01232F9800940DF1C4
:100F5800D702502102F0E2FE9DF8D73003F00303D8
:100F6800032B8DF8D6301ED00A24012310AA502155
:100F78002F9800948DF8405002F052FD01230DF196
:100F8800D70250212F98009402F0C8FE9DF8D73060
:100F9800204603F003038DF8D63001F021FD9DF8BB
:100FA800D630032BE0D1CB48CA4D4FF4005102F0A4
:100FB8004BFB0A2428464FF4005102F045FB4FF43E
:100FC8007A7001F00DFD013CF4D10A261A210123A3
:100FD80018AA8DF86010009650212F9802F020FD75
:100FE800012300960DF1D90250212F9802F096FEA8
:100FF8001B2300968DF8603018AA012350212F98E2
:1010080002F00EFD009601232F980DF1DA0250210F
:1010180002F084FEBDF9D9309DED2E7AADF8D430BA
:1010280007EE903AF8EEE77A254667EE877A642469
:10103800CDED347ACDED2D7ACDED307A26460823E4
:101048002C98009618AA062102F068FE189B013C0D
:101058001D44F4D107EE905A9FED9F7ADDED2B6A7F
:10106800F8EEE77A642567EE877A2E4687EEA67A49
:101078008DED297A08232C98009618AA062102F0EB
:101088004DFE199B013D1C44F4D107EE904A9FED9B
:10109800927ADDED2B6A914C914EF8EEE77A67EE85
:1010A800877A87EEA67A8DED2A7A00F031F92846FC
:1010B8009FED8C0A874D00F023F900F01BF94FF4DF
:1010C8000051284602F0C0FA279B269A0233934221
:1010D800279380F2FB802D99309124992C980A440B
:1010E800934204BF239B30936427009718AA0823D0
:1010F800062102F013FEDDED187A9DED2B6ADDED79
:10110800296A0097B8EEE77A18AAC7EE067A082384
:101118002C9806210A2777EEE67ACDED327A02F08E
:10112800FDFDDDED197ADDED2B6A9DED2A7A329809
:10113800F8EEE77A87EEA68A38EE478A8DED338A8D
:10114800FFF7CCFAC4E9040118EE100AFFF7C6FA53
:101158001A23C4E9060118AA00978DF860302F9861
:101168000123502102F05CFC00970DF1D9022F9861
:101178000123502102F0D2FD1B23009718AA8DF8F5
:1011880060302F980123502102F04AFC0DF1DA0259
:1011980000972F980123502102F0C0FDBDF9D930E6
:1011A8009DED2E7AADF8D43007EE903AF8EEE77A56
:1011B80067EE877A17EE900ACDED347AFFF78EFA4C
:1011C800C4E900013098FFF789FAC4E9020104F084
:1011D800D3FBD6E90001FFF761FB08EE100A319056
:1011E80000F096F800F086F8B0EE480A38462897DE
:1011F80000F086F8289801F0F3FB9DED347ADFEDD6
:101208003A5A9FED3A6ADDED327ADDED336A27EE20
:10121800257A67EE867ABDEEC77A66EE866A17EE9D
:10122800101AFDEEE77A4FEA212C17EE902ADDED31
:10123800315A8DF86010FDEEE67A8DF861C04FEAFC
:10124800214C090E17EE903A9DED306A8DF8631027
:10125800FDEEE57A11128DF864208DF865101114F1
:10126800120E17EE907A8DF86720FDEEC67A1A12E4
:101278008DF868308DF869201A141B0E17EE900A45
:101288008DF86B303B128DF86D303B148DF86E3055
:1012980003128DF8713003148DF86A208DF87230BE
:1012A8003A0E030E8DF870008DF866108DF86F20D9
:1012B8008DF8733014224FF0FF3318A90C488DF8BD
:1012C8006C708DF862C003F0AFFFF8E604BF259993
:1012D800309102E7000400480AD7233C00080020A8
:1012E800200800200000000000401C460050C347B2
:1012F800A8060020014B186800F08CB8940700205D
:10130800024B0146186800F029B800BF9407002076
:10131800014B186800F094B894070020704700BF8C
:10132800704700BF4FF0000CC0E90012836080F8DE
:101338000CC0C0F80EC0A0F816C080F81EC0A0F8F7
:1013480018C0C0F81AC070474FF0020C40F20143B1
:1013580080F80CC00182C282C3837047DFED067A31
:1013680020EE270A08B5BDEEC00A0A4610EE103A6C
:1013780019B2FFF7E9FF08BD00AC1C46438BB0F873
:101388001CC00B4323EA020341EA0C014383818317
:10139800704700BF837F012B00D0704710B5027BD8
:1013A800022A044606D0032A26D0012A15D0032390
:1013B800A37710BD4368002283F824200068042125
:1013C80005F046FEE28AB4F91010206805F044FEE4
:1013D8000028ECD00223A37710BD4368002283F8CD
:1013E80024200068032105F033FEE28AB4F90E10C8
:1013F800206805F031FEEBE7426882F82430D0F827
:1014080012301361E6E700BF407E7047808B70475B
:10141800408B704710B50446FFF7F6FF08B100206F
:1014280010BD2046FFF7F2FF0028F8D12046FFF74D
:10143800EFFF0028F3D101202076A07710BD00BF70
:1014480010B50446FFF7E0FF0B2801D0002010BDBF
:101458002046FFF7DDFF0028F8D102232376A0837A
:10146800012010BD838B408B43EA0040704700BFCA
:10147800037B022B05D0032B13D0012B09D00120AD
:101488007047B0F91030002BACBF01204FF0FF308F
:101498007047B0F90E30002BACBF01204FF0FF3081
:1014A8007047B0F91230002BACBF01204FF0FF306D
:1014B800704700BF44F6E61103B213FB01F2C0F314
:1014C8000F4010FB01F15042A0EB4100B0F1804FFA
:1014D80084B005DAC11311F5004F0CDA094A01E0AE
:1014E80047F6FF729BB2002063F30F0093B263F3D9
:1014F8001F4004B0704703480AB28242B8BF024690
:10150800F0E700BF0180FFFF00F50040C0F389103D
:1015180000F44071B1F5007F82B028D04FF000038D
:101528001A4616D861B3B1F5807F09D1C0B2C2435B
:101538001A49D2B231F9103031F81220524212B29F
:101548009BB2002063F30F0092B262F31F4002B017
:101558007047B1F5407FF3D11049C0B2C24331F8AA
:101568001030D2B25B4231F912201BB2E8E7C0B2A8
:10157800C3430A49DBB231F9102031F91330DFE7F0
:10158800C0B2C3430549DBB231F8102031F813303B
:1015980052425B4212B21BB2D2E700BF7C7900080C
:1015A80030B585B00346054608461C140193FFF77D
:1015B800ABFF2DB20FFA80FC031405FB0CF104FB02
:1015C8001311B1F1804F05DACA1312F5004F22DA70
:1015D800144901E047F6FF710CFB04F405FB0344D2
:1015E800B4F1804F4FEAE43204DA12F5004F0CDA16
:1015F8000C4B01E047F6FF738AB2002062F30F003C
:101608009BB263F31F4005B030BD064813B2834256
:10161800B8BF0346F0E7034912B29142B8BF11467A
:10162800DAE700BF0180FFFF30B585B00446054604
:1016380008460194FFF768FF241402142DB200B283
:1016480004FB02F305FB003300FB04F405FB124422
:10165800C3F3CF33002063F30F00C4F3CF3464F334
:101668001F4005B030BD00BF031E35DDB3F5001FB8
:101678002BDD5A1302F500525210B2F5005F29D043
:1016880093FBF2F11144B2EB610F4FEA610024D0F1
:1016980093FBF0F20244B0EB620F4FEA62011CD0F8
:1016A80093FBF1F20A44B1EB620F4FEA620014D0E7
:1016B80093FBF0F20244B0EB620F4FEA62010CD0E8
:1016C80093FBF1F0084440107047DA118032521051
:1016D800802AD5D11046704700207047262238B599
:1016E80000FB02F2154B00249C50054602F108014C
:1016F8009818103219441344114A446052F82500CE
:101708004C608C60C3F80640C3F80A40C3F80E402A
:10171800214604F047FA0B4B214653F8250004F004
:1017280041FA094B53F8250005F086FC074B53F89E
:101738002500BDE8384000F085BD00BF5C070020EB
:1017480068040020640400206C0400209007002036
:1017580000286AD02DE9F04FDFF810B1DFF81091BA
:10176800324D334E334F85B04FF0000804463248AF
:10177800CBF8000089F8008004F024FD04F07AFA20
:101788002E4804F007FA2E4805F0E4FE2C4A2B49AF
:10179800286805F037FC2B4805F0A4FFDBF800307B
:1017A8002968284A00932848284B05F04FFA28480A
:1017B80004F0F0F9274804F0EDF9304605F024F973
:1017C800254B26481B68DE60254E9E6004F0B4F960
:1017D800244B2548186005F0AFF94FF0010A404640
:1017E800FFF77CFF286886F824A005F0A3FC306189
:1017F800286805F09FFCC0F30F40DBF8003029682B
:10180800B08232463846FFF78DFD286805F092FC15
:10181800424601B23846FFF797FD2760FFF77EFD85
:1018280089F800A005B0BDE8F08F70476C0400206F
:10183800000000203007002074010020380100203B
:10184800A402002028040020180200209002002092
:101858000C010020E00000206004002000040020AB
:101868005C0700208C070020000200209007002061
:1018780082070020704700BF10B5084C262303FBE1
:10188800004494F8243003B110BD054B53F82000F0
:1018980005F026FCE083208210BD00BF5C07002015
:1018A8006C040020014B1880704700BF8807002097
:1018B800034B188880B2B0FA80F04009704700BF27
:1018C8008807002070B582B000236946B448ADF897
:1018D800003005F03DFDB34EB34C0546306804F0CA
:1018E800ABF92046FFF794FD18B10A23637602B0DE
:1018F80070BD2046FFF78AFD70BB637E132BF6D8B8
:1019080001A252F823F000BFA51A0008F718000832
:10191800F7180008F71800081F1A0008F718000839
:10192800FB190008F7180008DD190008F718000867
:1019380061190008D1190008F7180008F7180008FD
:10194800F7180008F7180008F718000889190008A0
:10195800F7180008691900080B23637602B070BDF8
:10196800237E052B00F0B280904805F0EBF9024683
:10197800002840F0C6808C481021FFF7FFFCB6E72E
:10198800237E052B00F0A280894D0121286800F0F4
:101998005DFC0028ABD0237E032B00F0F880854A3D
:1019A800854B10688549012283F8242005F040FB07
:1019B8007B4805F0A9FD0020FFF790FE286804F099
:1019C800E7FA0423637692E7237E022B8FD1002364
:1019D80023838CE7FFF76CFF002888D0754B774985
:1019E800186805F025FB754805F06EFE0023238373
:1019F8007DE7237E052B69D06B48FFF7CBFC0020E1
:101A0800FFF73AFF002D7FF472AF67482A4620217E
:101A1800FFF7B4FC6BE7237E052B57D0634805F02E
:101A280091F90246002862D15F481021FFF7A6FC11
:101A38000DF10201614805F0ADFE0DF102015848B3
:101A480005F0C2FD05465848FFF712FD41B254485B
:101A580005F036FE5948294605F03EFF002D3FF4B3
:101A680046AF4F48544E564D05F08AFA0146706805
:101A7800FFF796FD03462868019305F05DF8B6F96F
:101A880010102868002205F09DF8BDF90410286898
:101A9800192205F097F81323637628E7257E05F0C9
:101AA800FD05012D7FF423AF3F48414EFFF7E0FCD1
:101AB80001463E4805F002F9306890F86E1000299A
:101AC80049D100F0C3FB1123637610E7384B18683F
:101AD80004F0A4FA0020FFF701FE306804F0C6F80D
:101AE8004FF44870FFF7DEFE08236376FFE6314BBC
:101AF800186805F0F5FA304BB3F9142018825A82A9
:101B080096E72E4801A905F045FE05462B4805F045
:101B1800F1FE002D38D0284B2A48B3F91060254D26
:101B280004F042F801B206FB01F1264804F03AF845
:101B38001B49286805F07CFA0020FFF79BFE00206F
:101B4800FFF79AFE286805F003FB1748FFF722FC09
:101B580006236376CBE62946A0F84E5000F076FBC4
:101B6800154B144A83F824501068144905F060FA9C
:101B78000B4805F0C9FC0020FFF7B0FD306804F001
:101B880007FA04236376B2E60028C4D1AFE6002042
:101B9800FFF7A4FD306804F069F800232383A6E664
:101BA800A402002060040020300700201802002052
:101BB800900700206C0400205C0700202804002007
:101BC8008C0700203801002038B5114B1B78012BF9
:101BD80000D038BD0F4DDCB22B889BB1013B2B8068
:101BE8000D4A13889BB21BB11388013B9BB213802B
:101BF8000A4A13889BB2002BEBD01388013B9BB297
:101C0800138038BDFFF75EFEFFF78AFB2C80E7E7FD
:101C1800820700208607002084070020880700200C
:101C28002DE9F047554F564C7B7ED4F81A0088B002
:101C3800132B059000F08D80524805F09DF905465C
:101C4800002856D1504BDFF86091186805F0F2F97A
:101C5800064605F095F98046304605F099F902A93F
:101C6800D9F8000000F0A4F90298FFF723FC4146D8
:101C78000390FFF795FCB4F91030009001B2591A9F
:101C8800424B186803F092FFBDF90230B4F9121004
:101C9800C91A3F4B8246186803F088FFADF804A0C4
:101CA800ADF8060001993B4803F004FF03463046AF
:101CB8000FFA83FA1E14019305F06AF94146019858
:101CC800FFF7B2FC0146D9F80000049100F072F960
:101CD800029B23600146039B049863600129009BD3
:101CE800A4F816A02683A4F82080E360C4F81A009C
:101CF8003BD0244805F036F9626806920346264828
:101D08001C4603F0D5FE05A903462448ADF81C304F
:101D180005F026FA214805F0C5FBB4B17B7E042BFB
:101D280005D0132B03D0002008B0BDE8F0871B486E
:101D380005F026F904A903461948ADF8103005F056
:101D4800D5FC002008B0BDE8F087144805F0A4FCD5
:101D5800E4E7144D286804F019FF00287FF46CAFFD
:101D6800286804F0F1FE208266E704482A46FFF757
:101D780005FB002008B0BDE8F08700BF3007002051
:101D88005C070020180200206C0400206804002072
:101D9800640400202C00002000000020A402002081
:101DA800280400208C0700209007002070B51B4BEA
:101DB8001B4E82B0044653F8200003F0CFFE0546C0
:101DC80056F8240000F068FA05F00E05284385B29D
:101DD80074B11448EA4300EB441092B229460190CA
:101DE800FFF7CCFA0198FFF73DFB40B902B070BD90
:101DF8000D4804F03BFE00F00E000543E9E756F8F5
:101E0800240000F01FFA2046FFF768FC074B53F840
:101E1800240002B0BDE8704003F028BF7004002021
:101E280090070020300700200000002060040020F8
:101E380008B5064B1B78012B00D008BD0020FFF722
:101E4800B5FFBDE8084000F057BB00BF820700207F
:101E580008B5044B1B7803B908BDFFF7B5FEFFF7BB
:101E6800E7FF08BD8207002008B5054B186804F095
:101E7800D5F8BDE80840034800228021FFF77EBA64
:101E8800900700203007002030B44FF09042344BC8
:101E9800D3614FF48071D1618CB0D361D3690B9356
:101EA8004FF400714FF481330B98D361D161D36142
:101EB800D3690A9340212B4B0A98D361D161D3612E
:101EC800D36909934FF482314FF48060099BD16143
:101ED800D061D161D469244B0894089D4FF48834AB
:101EE8004FF48055DC61DD61DC61DC690794079D96
:101EF8004FF484344FF40065DC61DD61DC61DC693A
:101F08000694069CD961D861D961D96905910224E2
:101F180016490598D161D461D161D0690490049DB6
:101F28004FF001100125D061D561D061D2690392CB
:101F3800039AD861DD61D861DA690292029AD9619F
:101F4800DC61D961D9690191094A0198DA610421F2
:101F5800D961DA61DB690093009B0CB030BC704733
:101F680000010100400001000008004802000100D3
:101F78000400010008B502F03DFC0A4BA3FB003049
:101F8800C00901F057FA084B002219684FF0FF30DA
:101F980001F004FA0548FFF7DBFBBDE80840FFF74E
:101FA80073BF00BFD34D6210800400209407002047
:101FB8000368184710B5B0F86040838F82B04FEAC5
:101FC800214C019104FB0CFC09B2CCEBCC7C03FB4B
:101FD80001F101EB4C03C1EB4C0103EBD37E01EBA8
:101FE800D172B3F1FF3F4FEA4C0C4FEA6E0E4FEA45
:101FF8006202C0F28680B1F1FF3F57DBBEEB020EF2
:1020080044BF0EF57F3E0EF2FF3E0029BCBF01F52E
:102018007F3101F2FF31002BB8BF03F57F334FEA60
:10202800940202EBAE42B8BF03F2FF334FF0010C4B
:1020380002EBA141A2EBA34380F86AC0A0F84610C6
:10204800A0F84820A0F84A30B0F85E4022EAE272D0
:1020580021EAE17123EAE37392B289B29BB2012CBF
:10206800C287A0F84010A0F842301AD1B0F9504009
:10207800002CB0F86240CCBF1219121B92B2C28772
:10208800B0F95220002AB0F95420CCBF0919091B15
:10209800002A89B2CCBF1B191B1BA0F84010A0F85E
:1020A8004230436902B0BDE810401847BCF1000F48
:1020B8004FDDBCEB020E44BF0EF57F3E0EF2FF3E35
:1020C8000029B8BF01F57F314FF00003B8BF01F216
:1020D800FF3180F86A30A208BCF1000302EBAE427F
:1020E800B8BF03F5FF3302EBA141B8BF03F2FF13FA
:1020F800A1EB6343A0F84620A0F84810A0F84A30A6
:10210800A2E7B1F1FF3F75DBBCF1000F4ADDBEEB82
:102118000C0E48BF0EF57F3E4FF0020248BF0EF28C
:10212800FF3E002BB8BF03F57F3380F86A204FEAE3
:10213800940202EBAE42B8BF03F2FF33A2EBA34313
:1021480003EB6C41A0F84610A0F84830A0F84A20EC
:102158007AE7BEEB0C0E44BF0EF57F3E0EF2FF3E53
:10216800002BB8BF03F57F334FF00502B8BF03F269
:10217800FF3380F86A20BCF100014FEA940202EBB9
:10218800AE42B8BF01F5FF31A2EBA343B8BF01F2DD
:10219800FF1103EB6141A0F84620A0F84830A0F8F1
:1021A8004A1051E7BCEB020E44BF0EF57F3E0EF21B
:1021B800FF3E0029B8BF01F57F314FF00303B8BFD8
:1021C80001F2FF3180F86A30A208BCF1000302EB8B
:1021D800AE42B8BF03F5FF3302EBA141B8BF03F22B
:1021E800FF13A1EB6343A0F84630A0F84810A0F80D
:1021F8004A2029E7BEEB020E44BF0EF57F3E0EF2E1
:10220800FF3E0029BCBF01F57F3101F2FF31002BF1
:10221800B8BF03F57F334FEA940202EBAE42B8BF72
:1022280003F2FF334FF0040C02EBA141A2EBA343EE
:1022380080F86AC0A0F84630A0F84820A0F84A10F4
:1022480002E700BF436818478368184710B504467B
:1022580082B099B1012902D0002002B010BDB0F8B7
:102268004E309BB1013B9BB20191A0F84E30002B40
:10227800F2D1C368984701990846EEE7FFF7E2FFF5
:102288002046E3689847012002B010BD084602B016
:1022980010BD00BF0369184783691847764970B5B0
:1022A8000C680246002C2FD090F804C023799C4576
:1022B8001DD04D68002D00F0C2802B7963454FF08A
:1022C800FF002BD08C68002C00F0A5802379634593
:1022D8002AD0CC68002C00F0A7802379634500F051
:1022E800A880032888BFFF2040F2B78070BD03682C
:1022F800206883421ED04D68002DDED18C68002CEA
:1023080000F0B0800120E1E74D68002D00F0A380C7
:1023180090F804C02B7963452046D3D12C68136804
:102328009C42CFD1012006E0246813689C42D0D19A
:10233800022000E0002041F8202099684F4C002539
:10234800C90744F830501ED45968042421F0040108
:1023580059601C605968202421F0200159601C60D4
:10236800996821F0404121F03F0141F00041996016
:1023780099680029FCDB996821F0004121F03F01B0
:1023880041F001019960196B21F00F01196314796B
:10239800092C30D804EB4405A10641EA0551022571
:1023A80005FA04F4214301F0007E4FF0007494FA1A
:1023B800A4F4B4FA84F42EFA04FE143301F0F8718C
:1023C80053F82E404FF0F87C9CFAACF5B5FA85F539
:1023D8009CFAACFC9668BCFA8CFC21FA05F221FA4E
:1023E8000CF106FA01F50721914024EA010129437D
:1023F80043F82E1070BD03216FF01D0511FB045525
:102408000221A14041EA055141EA846141F000718D
:102418004FF0007EC9E7042817D9CC6814B1237996
:102428009C451CD0136883E70428136883D90320CC
:1024380081E7136824689C427FF453AFF7E70120D3
:102448008C681CB192F804C040E72046CC6824B1DF
:1024580092F804C041E72846F2E713686BE713686F
:102468000220E7E7CC68002C3FF45CAF2079604598
:102478007FF458AF0120DDE7BC0700209807002053
:102488001C4B53F8203019791A68092923D801EB15
:10249800410C8B06022043EA0C5300FA01F10B436E
:1024A8004FF4407191FAA1F1116B1B0D03F4F8631D
:1024B80021F4F8610B431363136C936823F0004312
:1024C80023F03F0343F00403936013685B07FCD5D4
:1024D800106C80B2704703206FF01D0C022310FBB4
:1024E80001C08B4043EA005343EA816343F0007321
:1024F800D6E700BFBC07002070B50F4C2378012B2E
:1025080000D070BD0D4B1D782846FFF7B9FF0C4B66
:102518000C4A53F835601080022201462270002EC2
:10252800EFD003EBC50328465A68002323703346CF
:10253800BDE87040184700BFB9070020B807002061
:1025480098070020BA0700204FF0A04340221A60E5
:10255800FFF766BB034B04486FF001021A6104F0F1
:10256800A9B800BF002C01407401002008B50C4B2D
:102578001A69110605D56FF080020A481A6104F03D
:10258800D5F8074B1A69D20505D56FF4807205484E
:102598001A6104F0ABF8BDE80840FFF715BB00BFAF
:1025A800002C01407401002008B5FFF75DFCFEE730
:1025B80010B50A4C2378022B06D00133DBB2237006
:1025C800BDE81040FFF744BC00F0F8F900F04EFFFA
:1025D80001232370BDE81040FFF73ABC74040020C3
:1025E8000B4B9A6942F001029A619A6982B002F033
:1025F80001020092009ADA6942F08052DA61DB69DE
:1026080003F080530193019B042002B000F0B4BE94
:102618000010024010B503688AB00024B3F1A04F3F
:10262800CDE90444CDE90644089401D00AB010BDB0
:1026380003F1704303F5043304A95A69164842F0BC
:1026480080525A615A6902F080520192019A5A697D
:1026580042F400225A615A6902F400220292029A54
:102668005A6942F400325A615B6903F400330393F8
:1026780007220323CDE90423039B00F0FBFE03227A
:10268800032304A94FF09040CDE90423069400F0F9
:10269800F1FE0AB010BD00BF0008004810B51C4A82
:1026A800016888B000239142CDE90233CDE90433B3
:1026B800069301D008B010BD164C1748636943F45F
:1026C80080236361636903F4802300934FF4C0722D
:1026D8001223CDE9022301220323CDE9042302A911
:1026E80004230693009A00F0C5FE4FF4003001F071
:1026F80057FC4FF4802001F053FCE36943F40013C6
:10270800E361E36903F400130193019B08B010BD72
:10271800005400400010024000040048000000007F
:1027280010B51B4A016888B000239142CDE90233F5
:10273800CDE90433069301D008B010BD03F18043FE
:1027480003F504339FED107B9A6942F400629A61A5
:102758009A6902F400620092009A5A6942F40032BF
:102768005A615B6903F4003301930122062302A92D
:102778004FF090408DED027B019C0492069300F08F
:1027880079FE08B010BD00BF400000000200000044
:10279800002C01400000000000B51B4A016889B008
:1027A80000239142CDE90233CDE90433069302D0E8
:1027B80009B05DF804FB03F1804303F504339FED92
:1027C8000E7B5A6942F400325A615B698DED027BD7
:1027D8009FED0B7B03F40033019302A906234FF00E
:1027E80090408DED047B019A069300F043FE09B0FA
:1027F8005DF804FBAFF30080000700000200000052
:102808000200000003000000002C0140000000004E
:1028180010B5026844498CB000238A42CDE90633DA
:10282800CDE908330A9307D0404B9A4228D0404B51
:102838009A4248D00CB010BD03F1804303F504332D
:102848009FED337B9A693B4842F480429A619A69CA
:1028580002F480420092009A5A6942F400225A61B6
:102868005B6903F4002301930322072306A98DED76
:10287800067BCDE90923019C00F0FCFD0CB010BDDE
:1028880003F5E6339FED247BDA6942F40032DA611E
:10289800DA6902F400320292029A5A6942F400326A
:1028A8005A615B6903F4003303930322072306A9E3
:1028B8004FF090408DED067BCDE90923039C00F095
:1028C800D9FD0CB010BD03F5E4339FED157BDA6933
:1028D800194842F48022DA61DA6902F4802204920B
:1028E800049A5A6942F480225A615B6903F480238E
:1028F80005930322072306A98DED067BCDE909235D
:10290800059C00F0B7FD0CB010BD00BFAFF3008010
:1029180030000000020000000C000000020000006F
:10292800000C000002000000003801400044004094
:10293800004800400008004800040048034AD2F854
:10294800883043F47003C2F88830704700ED00E027
:1029580038B50E4A0E4B12781B6805464FF47A704C
:10296800B0FBF2F0B3FBF0F000F064FD08B90F2DF6
:1029780001D9012038BD0446024629464FF0FF30F0
:1029880000F00CFD034B20461D6038BD7C04002080
:102998007804002080040020074A08B5136843F033
:1029A80010031360032000F0E7FC0420FFF7D0FFBA
:1029B800FFF716FE002008BD00200240034A044B22
:1029C80011681B780B441360704700BFCC070020C8
:1029D8007C040020014B1868704700BFCC0700201A
:1029E80038B50446FFF7F6FF631C054602D0044BD2
:1029F8001B781C44FFF7EEFF431BA342FAD338BDF4
:102A08007C040020026838B5936803F00303012BA7
:102A180001D0002038BD1168CC07FAD5916801F0C3
:102A28000D010129044609D0026C42F0100222640B
:102A38001846636C43F00103636438BD936803214F
:102A480043F0020393601160FFF7C4FF23689B689B
:102A5800D907054603D4DCE79B68DB07D9D5FFF720
:102A6800B9FF401B02282368F6D99A68D207F3D524
:102A7800236C43F010032364636C012003436364F5
:102A880038BD00BF30B583B000230193002800F0A3
:102A98008380036C13F01003044616D1056C002DD7
:102AA8007DD022689168CD006AD59168880067D486
:102AB800216CC90600D463B1236C23F012030120F2
:102AC80043F01003236403B030BD036CD806F3D47D
:102AD8002268906810F00400EED1216C21F4817115
:102AE80041F002012164936803F00303012B00F015
:102AF800A4805A4965688B6823F440332B438B6064
:102B0800636BE168657E012BA36843EA010394F8CF
:102B1800201018BF4FF4805043EA4533012943EA97
:102B2800000300F08280A16A012902D0E06A014313
:102B38000B43916811F00C0F0CD1D16821F480413E
:102B480021F00201D16094F83010207E490041EA5A
:102B580080310B43D0684249014020690B4301286A
:102B6800D3605AD0136B23F00F0313630020606403
:102B7800236C23F0030343F00103236403B030BD47
:102B8800236C23F0120343F010032364636C43F0B7
:102B980001036364236C8FE7012003B030BDC0E9F3
:102BA8001255456480F83C50FFF734FD226893685D
:102BB800D90001D52B4675E72046FFF723FF226C85
:102BC800D20603463FF56DAF00287FF46AAF216C4B
:102BD800226821F4885121F0020141F002012164A8
:102BE8009068204920F0405090609068096840F053
:102BF800805090601C48A0FB0101890C01EB810109
:102C080049000191019900293FF44CAF019901391C
:102C1800019101990029F9D144E7116BE36921F089
:102C28000F01013B0B431363A0E75DB9616A0139EA
:102C380043EA414343F4803375E71368DB073FF504
:102C48005FAF56E7216C21F0220141F02001216499
:102C5800616C41F00101616465E700BF0003005049
:102C680007C0F0FF7804002083DE1B43F0B590F81E
:102C78003C30CC6883B00022012B019200F0E28046
:102C88000368012280F83C209D686D073BD44A68A0
:102C9800042A75D802EB42021E6B0D6852004FF0F1
:102CA8001F0C0CFA02FC26EA0C0C05FA02F24CEA9C
:102CB80002021A639A6812F00C0F37D1092D40F2FC
:102CC800AD808F689A6905EB45061E3E4FF0070EEA
:102CD80007FA06FC0EFA06F622EA060242EA0C0297
:102CE8009A61DA680E694F69C2F3C1025200013E67
:102CF80007FA02F2032E00F21D81DFE816F00E003B
:102D0800FF00F500EB00036C43F02003036400238D
:102D180080F83C30104603B0F0BD1F6E9B4E3E401D
:102D280046EA8566324342F000421A669A6802F023
:102D38000302012A00F08180012C00F08780D3F87B
:102D4800B0200121A94022EA0102C3F8B020102DC9
:102D58002DD0112D40F090808D4A9268D6014AD42A
:102D68009A6802F00302012A00F0DC80B3F1A04F58
:102D780041D187498B6843F0807300228B60C6E796
:102D8800092A3AD90E2A02EB42024FEA420200F21D
:102D980093809E6B0D683C3A4FF01F0C0CFA02FCB6
:102DA80026EA0C0605FA02F232439A6382E7784A69
:102DB800926817021FD49A6802F00302012A00F0F1
:102DC800A780B3F1A04F16D1714A724C936872492B
:102DD80043F4000393602368A1FB03239B0C03EBDC
:102DE80083035B000193019B2BB1019B013B019382
:102DF800019B002BF9D1002289E702EB4202520025
:102E08005E6B0D681E3A4FF01F0C0CFA02FC26EAA6
:102E18000C0605FA02F232435A634BE75A698E6888
:102E280005EB450E4FF0070C0CFA0EFC06FA0EF6F1
:102E380022EA0C0232435A6153E71A68D2077FF537
:102E48007BAFD8E70222104603B0F0BDD3F8B0201C
:102E5800AC401443092DC3F8B0401FD98C689A6957
:102E680005EB45011B3907268C4006FA01F122EAD9
:102E7800010222439A616AE7122DBCD1444A926842
:102E88005502B8D49A6802F00302012A4ED040498C
:102E98008B6843F4800300228B6038E789685A699D
:102EA800013505EB45050724A94004FA05F522EA92
:102EB80005020A435A619EE7DE6B0D685A3A4FF0E5
:102EC8001F0C0CFA02FC26EA0C0605FA02F2324341
:102ED800DA63EFE6DF6E2D4E3E4046EA8566324302
:102EE80042F00042DA6621E79F6E284E3E4046EAED
:102EF8008566324342F000429A6617E75F6E234EBA
:102F08003E4046EA8566324342F000425A660DE783
:102F18001A68D4077FF555AF036C43F020030122EC
:102F28000364F4E61A68D207F6D41FE71B68D907CA
:102F3800ADD5F1E71A6E02F0F842B2EB856F4FEAB1
:102F4800856614D05A6E02F0F842964214D09A6EF2
:102F580002F0F842964214D0DA6E02F0F842964235
:102F68007FF4E4AEDA6E22F00042DA66DEE61A6E2C
:102F780022F000421A66E5E75A6E22F000425A66CD
:102F8800E5E79A6E22F000429A66E5E700F0FF83D3
:102F9800000300507804002083DE1B43F0B590F84E
:102FA8003C30CC6883B00022012B0192026900F00A
:102FB8008E81012380F83C301AB38B69012B20D015
:102FC800C56C002D40F01D810A6AC364012A00F017
:102FD80089814D6A013B2A431A434D680E68C364D0
:102FE80005EB45056D00023506FA05F31F2606FABE
:102FF80005F522EA05021A43826403684FF0000CC3
:103008000AE04B68012B00F0E880026C036842F08C
:10301800200202644FF0010C9A6812070DD44A7F0F
:10302800002A40F0C9800A7FDD688E7F120525F4EA
:10303800401542EA46522A43DA609A6812F00C0FA9
:103048003AD10A6A012ADA6822F0007200F03A815D
:10305800DA604A7F012A00F01C810E68092E40F2CE
:103068009D808D689A6906EB460EAEF11E0E072705
:1030780005FA0EF507FA0EFE22EA0E022A439A61B5
:10308800DA680D69C2F3C10E4A694FEA4E0E013D76
:1030980002FA0EF2032D00F23B81DFE815F004007E
:1030A800F000E600DC0042EA8662AA4D1E6E35405A
:1030B8002A4342F000421A669A6802F00302012A83
:1030C80023D0012C0A6826D0D3F8B01001249440EC
:1030D80021EA0401102AC3F8B01034D0112A40F0B4
:1030E800DE809D4A9268D50109D49A6802F00302ED
:1030F800012A00F00581B3F1A04F00F0ED80002314
:1031080080F83C30604603B0F0BD1A68D707F6D4A3
:10311800012C0A68D8D1D3F8B05094402C43092A1E
:10312800C3F8B04040F289808D68996902EB420487
:103138001B3C0726A54006FA04F421EA04012943AA
:10314800102A9961CAD1844A92681602D7D49A681B
:1031580002F00302012A00F0C880B3F1A04FCED1DB
:103168007D4A7E49936843F400039360A2F14E625E
:103178000B68A2F58422A2F27D42A2FB03239B0CDA
:1031880003EB83035B000193019B002BB7D0019BEA
:10319800013B0193019B002BF9D1B0E75A698D6877
:1031A80006EB46074FF0070E0EFA07FEBD4022EA6F
:1031B8000E022A435A6163E7DA688D7F22F44012CF
:1031C80042EA4552DA600A7F012A7FF436AF944614
:1031D800026C42F0200202642FE70B6A0A68604E14
:1031E800012B1EBF4D6A2B4343EA02220368DD6CA4
:1031F80008BF120235401543DD644FF0000C8264AD
:103208000AE74B680E68826C03EB43035B000233EA
:103218001F279E4007FA03F322EA0302013D3243C7
:10322800C5648264002D7FF4E8AE03684C4EAC465A
:10323800DD6C35402A43DA64EEE68C68013202EB35
:10324800420107255A698C4005FA01F122EA010278
:1032580022435A6153E742EA86623E4DDE6E3540AC
:103268002A4342F00042DA6626E742EA8662394D8E
:103278009E6E35402A4342F000429A661CE742EAB5
:103288008662344D5E6E35402A4342F000425A66EB
:1032980012E79446026C42F020020264DDE6122A2C
:1032A8007FF42DAF2C4A926854023FF528AF9A68F4
:1032B80002F00302012A27D0274A936843F48003C7
:1032C80093601CE74D7F42EA4562DA60C5E64FF03D
:1032D800020C604603B0F0BD1F4A936843F0807348
:1032E80093600CE75A1E134677E61A68D2077FF5F3
:1032F80034AF036C43F020034FF0010C0364FEE687
:103308001A68D107F5D4F6E61B68DB07D4D5F0E7D1
:103318001A6E02F0F842B2EB866F4FEA866514D057
:103328005A6E02F0F84295421CD09A6E02F0F842AA
:1033380095421CD0DA6E02F0F84295427FF4BCAE9A
:10334800DA6E22F00042DA66B6E61A6E22F0004221
:103358001A66E5E700F0FF830003005078040020B8
:10336800002008825A6E22F000425A66DDE79A6E03
:1033780022F000429A66DDE70749CA6803024FF661
:10338800FF0003F4E0630240134343F0BF6343F4D8
:103398000033CB60704700BF00ED00E01C4BDB68DA
:1033A800C3F3022300B5C3F1070EBEF1040F03F106
:1033B800040C28BF4FF0040EBCF1060F1BD9033BC9
:1033C8004FF0FF3C0CFA03FC22EA0C024FF0FF3CE2
:1033D8000CFA0EFC21EA0C019940002841EA02018E
:1033E8000CDB00F16040090100F56140C9B280F8CA
:1033F80000135DF804FB00221346E7E7054B00F0D5
:103408000F0009010344C9B219765DF804FB00BF37
:1034180000ED00E0FCEC00E0002808DB4109044A6C
:1034280000F01F00012303FA00F042F82100704762
:1034380000E100E00138B0F1807F10D210B44FF005
:10344800E023084C58614FF0F00C84F823C00022A8
:10345800072110469A615DF8044B196170470120F5
:10346800704700BF00ED00E0704700BF08B5FFF7E8
:10347800FBFF08BD2DE9F04F0C6885B0002C00F06B
:10348800C3804FF0000C684E009163464FF0010B6B
:1034980067E0032A40F0B28002FA0CF26FEA020EEB
:1034A800076807EA0E0E42EA0E0215F4403F026072
:1034B80051D05E4FBA6942F00102BA61BA6902F0AE
:1034C80001020392039A23F0030202F1804202F5FB
:1034D800803203F00307D2F808E0BF000F2101FA99
:1034E80007F8B0F1904F2EEA080E10D050498842E4
:1034F80000F08D804F49884200F08E804E49884206
:103508000CBF0321052101FA07F74EEA070EC2F89E
:1035180008E0B2686FEA0A0EEF0254BF0EEA020230
:103528004AEA0202B260F768A90254BF0EEA070726
:103538004AEA0707F7607768AA0354BF0EEA070745
:103548004AEA070777603268E90354BF0EEA0202C5
:103558004AEA02023260013334FA03F20CF1020C37
:1035680052D00BFA03F818EA040AF4D000994D680F
:1035780005F00302571E012F8BD8D0F80890CF68AA
:10358800032101FA0CFE29EA0E0907FA0CF747EAAB
:1035980009078760476827EA0808C5F300179F40AE
:1035A80047EA08076FEA0E0E4760C768009907EAFE
:1035B8000E088F6807FA0CF747EA0807022AC7605F
:1035C80002FA0CF27FF46CAF4FEAD30900EB8909D9
:1035D80003F00708D9F82010019100990F694FEA04
:1035E80088080F2107FA08F701FA08F8019921EA73
:1035F800080847EA0807C9F8207051E7032101FACB
:103608000CFE6FEA0E0ED0E705B0BDE8F08F0BFA9E
:1036180007F74EEA070E7AE74FF0020808FA07F7AD
:103628004EEA070E73E700BF000401400010024095
:103638000004004800080048000C00480AB18161F5
:1036480070478162704700BF436901EA030221EABB
:10365800030141EA02418161704700BF03682DE917
:10366800F04706469869400769D40F4690464FF0E0
:1036780010099C6914F0100464D00025C3F81C904C
:103688004446AA46791C9A695ED1900600F18A8060
:10369800BAF1000F04D19C69A106FCD52022DA6199
:1036A80045F0040401219A69D00530D54FF48071A2
:1036B8005505D96144F0010404D54FF48061D961FE
:1036C80044F00804910504D54FF4007244F0020454
:1036D800DA619A69970744BF00229A629A69D50706
:1036E80003D49A6942F001029A615A684548024037
:1036F8005A60736C002120221C43746486F84010C1
:1037080086F8412086F842100120BDE8F087500570
:10371800D3D49205D8D40029DBD19A69920646D42D
:10372800FFF758F9A0EB0800B842336800D81FB972
:103738009A6912F004025AD09A69510799D5002063
:10374800BDE8F0872146AEE792062BD4BAF1000F08
:10375800A6D1FFF73FF9001B8742336801D3002F3A
:1037680090D1586896F8422099690904D2B201D5D7
:1037780041040CD59A69900684D4FFF72BF9001BF5
:1037880019283368F6D920254FF0010A7AE7202A4C
:10379800F0D05A6842F480425A60FFF71BF9336848
:1037A8000446E7E7BAF1000F3FF478AF78E79A6983
:1037B800500702D5328D002AC1D19A6912F0100241
:1037C8001CBF102104224FF0200418BFD961726475
:1037D800DC615A680B490A4000215A6086F841406A
:1037E80086F8401086F842100120BDE8F087736C17
:1037F80086F8402020210B43736486F8411001208D
:10380800BDE8F08700E800FE03682DE9F0470646AA
:103818009869800662D40F4690464FF010099C695B
:1038280014F010046FD00025C3F81C904446AA4633
:10383800791C9A6969D1900600F19680BAF1000F57
:1038480004D19C69A106FCD52022DA6145F0040464
:1038580001219A69D00530D54FF480715505D96199
:1038680044F0010404D54FF48061D96144F00804A0
:10387800970504D54FF4007244F00204DA619A699E
:10388800900744BF00229A629A69D10703D49A69C3
:1038980042F001029A615A68364802405A60736CD5
:1038A800002120221C43746486F8401086F84120C9
:1038B80086F842100120BDE8F0875005D3D495055D
:1038C800D8D40029DBD1FFF785F8A0EB0800B8426F
:1038D80007D837B133689A699206A0D50020BDE8A9
:1038E800F08733689A6912F02002F4D1736C86F875
:1038F800402020210B43736486F8411086F842204B
:103908000120BDE8F0872146A3E792062CD4BAF13E
:10391800000F9BD1FFF75EF8001B8742336801D385
:10392800002F85D1586896F8422099690904D2B2C7
:1039380001D541040DD59A6990063FF579AFFFF797
:1039480049F8001B19283368F5D920254FF0010ADA
:103958006EE7202AEFD05A6842F480425A60FFF797
:1039680039F833680446E6E7BAF1000F3FF46CAF64
:103978006CE700BF00E800FE00284FD010B590F8B3
:103988004130044603F0FF02002B42D02368242272
:1039980084F841201968626821F0010122F0706200
:1039A80019601A619A68E16822F4004201299A6054
:1039B800A2682AD042F4044202299A6004BF4FF454
:1039C80000625A605968226941F0007141F400416F
:1039D80059606169D8680A43A16920F4004042EA45
:1039E8000122E169D860206ADA6001431960196828
:1039F80041F00101196000222023626484F84130FB
:103A0800226384F84220104610BD42F400429A60B6
:103A1800D8E780F84020FEF741FEB7E7012070475D
:103A28002DE9F84F1D4690F841300A9E202B29D1E8
:103A380090F84030012B044624D0012380F8403010
:103A48008B461746FEF7C6FF8146206883691B042C
:103A58001BD5FEF7BFFFA0EB090019282068F5D990
:103A680083691904F2D5636C002243F020032021F6
:103A7800636484F8402084F8411084F842200120CF
:103A8800BDE8F88F0220BDE8F88F212284F8412094
:103A98000023102284F84220636465856363638D84
:103AA80067629BB2FF2B6BD8638D99499BB22385C4
:103AB800DAB243681940CBF309030B4343EA0243E4
:103AC80043F0007343F400534360CBF3090B638D59
:103AD8009BB2002B00F0CC804FF0200A856915F0CE
:103AE800020540F0AF80836913F0100379D01023EA
:103AF800C3614F46A846721C836974D1990600F1C8
:103B0800F180B8F1000F04D183699A06FCD5C0F89A
:103B18001CA045F0040301218269D70540D54FF464
:103B280080715605C16143F0010304D54FF48061EB
:103B3800C16143F00803910504D54FF4007243F0C6
:103B48000203C2618269970744BF002282628269C8
:103B5800D60703D4826942F00102826142686D4D42
:103B68002A404260626C002120201343636484F879
:103B7800401084F8410084F842100120BDE8F88F15
:103B88004368634A1A40CBF30903134343F0FF73B6
:103B980043F49033FF222285CBF3090B436096E769
:103BA8005505C3D49205C8D40029CBD1731C95D030
:103BB800FEF710FFA0EB09008642206801D3002E13
:103BC8008CD1836913F0020388D1626C84F8403089
:103BD80020210A436264012084F8411084F84230AD
:103BE80051E7194698E79B067CD4B8F1000F90D1AD
:103BF800FEF7F0FEC01B8642206802D3002E7FF439
:103C08007AAF416894F8423082691204DBB20BD56E
:103C18004A0409D4202B07D0436843F48043436007
:103C2800FEF7D8FE07462068836999063FF563AF1B
:103C3800FEF7D0FEC01B19282068F5D920254FF0C3
:103C4800010858E7616A238D11F8012B8262628DA1
:103C58006162013A92B26285628D013B9BB292B277
:103C6800238502B143B3638D9BB2002B7FF436AF3B
:103C78004A4631462046FFF7C7FD002846D123684B
:103C8800244D2021D9615A682A405A6084F841108D
:103C980084F8400084F84200F5E683691A0610D4D7
:103CA800FEF798FEA0EB09008642206800D31EB9F3
:103CB800836913F0800388D0751CEED183691906D7
:103CC800FCD5638D9BB2FF2B11D94368124A134070
:103CD8004BEA030343F0FF7343F48033FF2222854A
:103CE8004360C0E7B8F1000F3FF411AF11E7638DEF
:103CF80009499BB22385DAB243680B404BEA0303B8
:103D080043EA024343F000734360ACE70120BAE69C
:103D1800009800FC00E800FE009C00FC2DE9F0473C
:103D2800984690F84130089E202B28D190F84030D2
:103D3800012B044623D0012380F8403089461746DA
:103D4800FEF748FE236805469A6911041AD5FEF75E
:103D580041FE401B19282368F6D99A691204F3D545
:103D6800636C002243F020032021636484F8402020
:103D780084F8411084F842200120BDE8F087022031
:103D8800BDE8F087222184F841100022102184F830
:103D980042106264A4F82A806263628D676292B2FC
:103DA800FF2AC9F3090765D8628D4E4892B2228569
:103DB800D1B25A6802403A4342EA014242F00072E4
:103DC80042F410525A60638D9BB2002B3DD0DFF84D
:103DD8001C81DFF81CA14FF0FF0903E0638D9BB243
:103DE800002B32D02A4631462046FFF737FC002800
:103DF80075D12268636A526A1A70628D238D616A6E
:103E0800013A92B26285628D013B01319BB292B256
:103E180061622385002AE1D0002BDFD12268701C63
:103E280034D193691906FCD5638D9BB2FF2B48D911
:103E38005368A4F8289003EA08033B4343EA0A03BB
:103E48005360638D9BB2002BCCD12A463146204665
:103E5800FFF7DAFC002842D12368234D2021D961DD
:103E68005A682A405A6084F8411084F8400084F85F
:103E7800420085E75A681B490A403A4342F0FF72FC
:103E880042F49232FF2121855A609CE793691B0610
:103E9800CAD4FEF79FFD401B8642226801D3002E3C
:103EA800BDD1936913F08003B9D1626C84F84030B6
:103EB80020210A436264012084F8411084F84230CA
:103EC8005EE7638D9BB22385D9B2536803EA080382
:103ED80043EA01433B4343F0007353607EE701200C
:103EE800BDE8F087009800FC00E800FE009C00FC9C
:103EF8000000FF0190F84120202A23D15FFA82FCBC
:103F080090F84020012A03461CD00268242000B5FE
:103F180083F84100106820F001001060106820F458
:103F28008050106010680143116011684FF0000E56
:103F380041F00101116083F841C083F840E0704608
:103F48005DF804FB0220704790F84120202A22D116
:103F580000B55FFA82FE90F84020012A03461CD083
:103F68000268242083F84100106820F001001060E6
:103F7800106820F4706040EA0121116011684FF068
:103F8800000C41F00101116083F841E083F840C062
:103F980060465DF804FB0220704702205DF804FBD0
:103FA800094A10B49169094C41F001019161926983
:103FB80083B002F001020192019B2368184320603C
:103FC80003B05DF8044B7047001002400000014048
:103FD800002800F08C822DE9F0430368D90783B0EC
:103FE80004464FD5B4494A6802F00C02042A00F08E
:103FF8006D814A6802F00C02082A00F06381636848
:10400800B3F5803F17D0002B00F09C81B3F5A02FAB
:1040180000F05882A84B1A6822F480321A601A6895
:1040280022F480221A60A44AA168D36A23F00F03FD
:104038000B43D3620AE0A04A136843F48033136049
:10404800D36AA16823F00F030B43D362FEF7C2FCC7
:10405800994F05464FF40038012605E0FEF7BAFCF3
:10406800401B642800F26A8198FAA8F33A6898FA23
:10407800A8F3B3FA83F303F01F0306FA03F313421A
:10408800ECD023689F0741D58B4A516811F00C0F7B
:1040980000F0C880516801F00C01082900F0BE80CA
:1040A8002269002A00F0AD81012595FAA5F3B3FA3B
:1040B80083F303F1845303F584139B007E4F1D6043
:1040C800FEF788FC4FF00208064605E0FEF782FC82
:1040D800801B022800F2328198FAA8F33A6898FA0D
:1040E800A8F3B3FA83F303F01F0305FA03F31342AB
:1040F800ECD03968F82292FAA2F26369B2FA82F235
:10410800934021F0F80213433B6023681D0721D434
:1041180058074CD5684BDA69D10040F1C1804FF09F
:104128000008664D2B68DA0540F1F880E368012B3A
:1041380000F08D81002B00F02E81052B5E4B1A6A52
:1041480000F0CD8122F001021A621A6A22F00402FC
:104158001A6281E1A269002A7BD0012595FAA5F2AD
:10416800574B554FB2FA82F213449B004FF00208A6
:104178001D60FEF72FFC064605E0FEF72BFC801BB2
:10418800022800F2DB8098FAA8F398FAA8F398FAC4
:10419800A8F37A6A98FAA8F3B3FA83F303F01F0333
:1041A80005FA03F31342E8D023685807B2D4E0694C
:1041B80080B3414D6B6803F00C03082B00F071814C
:1041C80002284FF0807300F0948193FAA3F3B3FAB6
:1041D80083F303F1845303F584139B0000221A60D0
:1041E800FEF7F8FB4FF000770446012605E0FEF7DE
:1041F800F1FB001B022800F2A18097FAA7F32A68B6
:1042080097FAA7F3B3FA83F303F01F0306FA03F34D
:104218001342ECD1002003B0BDE8F0835268D60306
:104228003FF53EAF022292FAA2F12349086892FABA
:10423800A2F2B2FA82F202F01F02012101FA02F29E
:1042480002425AD022698A4257D0012003B0BDE801
:10425800F083012696FAA6F1194B174FB1FA81F1AE
:104268000B449B004FF002081A60FEF7B3FB0546AB
:1042780004E0FEF7AFFB401B02285FD898FAA8F3CA
:1042880098FAA8F398FAA8F37A6A98FAA8F3B3FA0E
:1042980083F303F01F0306FA03F31342E9D183E71C
:1042A800DA6942F08052DA61DB6903F080530193E6
:1042B800019B4FF0010834E70010024000700040F5
:1042C800208190104A68D2037FF599AE4FF40032EE
:1042D80092FAA2F1B149086892FAA2F2B2FA82F20D
:1042E80002F01F02012101FA02F202423FF4CAAEB3
:1042F8006268002A7FF4C6AEA7E7A84DF8222868AE
:1043080092FAA2F2B2FA82F1626920F0F8008A40C9
:1043180002432A601D077FF5FBAE1BE72B6843F4B9
:1043280080732B60FEF756FB06462B68DB053FF5CE
:10433800FDAEFEF74FFB801B6428F6D9032003B0BF
:10434800BDE8F083954D2B6823F480332B602B68F0
:1043580023F480232B60EB6AA26823F00F03134336
:10436800EB62FEF737FB4FF400380646012704E0FE
:10437800FEF730FB801B6428E0D898FAA8F32A6877
:1043880098FAA8F3B3FA83F303F01F0307FA03F3C9
:104398001342EDD175E6814D2B6A23F001032B62A0
:1043A8002B6A23F004032B62FEF714FB4FF002097B
:1043B8000646012713E099FAA9F36A6A99FAA9F35C
:1043C800B3FA83F303F01F0307FA03F313420ED083
:1043D800FEF700FB41F28833801B9842AED899FA69
:1043E800A9F399FAA9F3002BE5D02A6AE6E7B8F110
:1043F800000F3FF4DCAE694AD36923F08053D361E0
:10440800D5E6012696FAA6F3B3FA83F303F18453AB
:1044180003F584139B00614F1A60FEF7DBFA4FF037
:104428000208054604E0FEF7D5FA401B022885D8A5
:1044380098FAA8F33A6898FAA8F3B3FA83F303F062
:104448001F0306FA03F31342EDD123685EE6534ACD
:10445800136A43F001031362FEF7BCFA4F4F054697
:104468004FF00209012614E099FAA9F37A6A99FA39
:10447800A9F3B3FA83F303F01F0306FA03F3134215
:10448800B5D1FEF7A7FA41F28833401B98423FF6B0
:1044980055AF99FAA9F399FAA9F3002BE4D03A6A2F
:1044A800E5E701283FF4B7AE6B68226A03F4803170
:1044B80091427FF4CAAE606A03F47013181A18BFE9
:1044C8000120A8E603F18043A3F53C331A6842F4BF
:1044D80080221A601A6842F480321A60A3E542F01A
:1044E80004021A621A6A42F001021A62B4E7012051
:1044F800704793FAA3F3B3FA83F303F1845303F5F4
:1045080084139B0000221A60FEF764FA4FF00078CB
:104518000646012705E0FEF75DFA801B02283FF6F4
:104528000DAF98FAA8F32A6898FAA8F3B3FA83F3B8
:1045380003F01F0307FA03F31342ECD1D4E908137D
:104548006A680B4322F4741213436B604FF0807354
:1045580093FAA3F3B3FA83F303F1845303F58413B3
:104568009B000E4D1F60FEF735FA4FF000770446AA
:10457800012605E0FEF72EFA001B02283FF6DEAE04
:1045880097FAA7F32A6897FAA7F3B3FA83F303F025
:104598001F0306FA03F31342ECD03BE60010024077
:1045A800002800F0C8806F4A136803F007038B42A5
:1045B8002DE9F0410D4604460CD2136823F0070399
:1045C8000B431360136803F007038B4202D00120EA
:1045D800BDE8F08123689F0706D56349A0684A684B
:1045E80022F0F00202434A60DE072FD561680129F4
:1045F80000F0A380022900F08B80022292FAA2F335
:10460800594B186892FAA2F2B2FA82F202F01F022B
:10461800012303FA02F20242D9D0534E736823F001
:1046280003030B437360FEF7D5F941F28838074658
:1046380005E0FEF7CFF9C01B404500F29080736893
:10464800626803F00C03B3EB820FF2D1454A13689A
:1046580003F00703AB4209D9136823F007032B4380
:104668001360136803F00703AB42B0D123685807FF
:1046780006D53D49E0684A6822F4E06202434A6090
:10468800190707D5384A2169536823F4605343EA68
:10469800C103536034494A6802F00C03082B17D051
:1046A8003249314BF0225B6892FAA2F2B2FA82F2F6
:1046B80003F0F003D3402E4A2E48D35C2E4A0068FC
:1046C80021FA03F31360FEF743F90020BDE8F081F7
:1046D8004FF4701393FAA3F302F47010B3FA83F350
:1046E800264CC96A20FA03F30F20E35C90FAA0F085
:1046F800B0FA80F001F00F01C140214CD203605C98
:104708004ABF1A491F49B1FBF0F103FB01F1C8E7A1
:104718004FF0007393FAA3F2134A106893FAA3F3C5
:10472800B3FA83F303F01F03012202FA03F30342EF
:104738007FF473AF4BE7012070474FF4003292FAD1
:10474800A2F3094B1B6892FAA2F2B2FA82F202F0C3
:104758001F0201FA02F21A427FF45FAF37E7032023
:1047680036E700BF002002400010024000127A0025
:10477800D87B00088004002078040020F07B000823
:10478800007C000800093D0015494B6803F00C0245
:10479800082A01D01348704710B44FF4701292FAE7
:1047A800A2F2B2FA82F203F470100F4CD040CA6A37
:1047B800205C0F2191FAA1F1DB03B1FA81F102F03B
:1047C8000F020A4C4CBF074B094B22FA01F2A25CBC
:1047D8005DF8044B48BFB3FBF2F303FB00F07047EE
:1047E8000010024000127A00F07B0008007C0008EC
:1047F80000093D00014B1868704700BF780400208D
:10480800084B4FF4E0625B6892FAA2F2B2FA82F2C5
:1048180003F4E06304490548D3400068CB5CD84002
:10482800704700BF00100240E87B000878040020B1
:10483800084B4FF460525B6892FAA2F2B2FA82F225
:1048480003F4605304490548D3400068CB5CD84062
:10485800704700BF00100240E87B00087804002081
:104868002DE9F04303680446D80383B040D57B4B59
:10487800DA69D10040F1A880794E3368DA054FF043
:10488800000540F1B180DFF8D481D8F8203013F466
:10489800407320D0616801F440729A421CD0D8F865
:1048A80020104FF4803321F4407093FAA3F26D4F37
:1048B800B2FA82F23A4492000126166093FAA3F300
:1048C800B3FA83F33B449B000022CF071A60C8F871
:1048D800200000F19D806168604A136A23F44073E8
:1048E8000B4313621DB1D36923F08053D36123684E
:1048F800DD0706D55949A0680A6B22F00302024376
:104908000A63980606D55549E0680A6B22F010023A
:1049180002430A63990306D55049206B4A6822F47A
:10492800800202434A605A0606D54C4920690A6B40
:1049380022F0200202430A631F0406D54749606932
:104948000A6B22F0400202430A639E0506D54349DA
:10495800E0694A6822F4000202434A601D0606D54F
:104968003E49A069CA6A22F4F8720243CA62D804AE
:1049780006D53A49206A0A6B22F4807202430A6318
:10498800590306D53549606A0A6B22F480620243EE
:104998000A631A0306D53149A06A0A6B22F4006239
:1049A80002430A6313F4801303D1184603B0BDE829
:1049B800F0832A4AE16A136B23F4005300200B4367
:1049C800136303B0BDE8F083DA69254E42F08052E4
:1049D800DA61DB6903F080530193019B3368DA05E0
:1049E8004FF001053FF54FAF336843F480733360F0
:1049F800FDF7F0FF07463368DB053FF544AFFDF7E9
:104A0800E9FFC01B6428F6D9032003B0BDE8F08392
:104A1800FDF7E0FF4FF00209074615E099FAA9F300
:104A2800D8F8242099FAA9F3B3FA83F303F01F0303
:104A380006FA03F313427FF44EAFFDF7CBFF41F2C2
:104A48008833C01B9842DFD899FAA9F399FAA9F3D9
:104A5800002BE3D0D8F82020E4E700BF0010024084
:104A68000070004000819010036A23F00103036284
:104A7800036A426870B48D68846923F002032B438B
:104A8800154D24F4803C0C682CF0730CA8424CEAB9
:104A980004040BD005F5A055A84207D005F580659C
:104AA800A84203D005F58065A8420DD1CD6823F052
:104AB80008032B43D1E9056522F4407246EA050C48
:104AC80023F004034CEA02024968426084614163AE
:104AD80070BC0362704700BF002C0140036A23F4D6
:104AE80080730362036A70B44468C2690D6822F473
:104AF800803222F073022A438D6823F4007343EA5C
:104B08000523124DA84218D0114DA84206D0114DC8
:104B1800A84203D005F58065A84207D1D1E905650B
:104B280024F4405446EA050C44EA0C1449684460ED
:104B3800C26170BCC16303627047CD6823F400632F
:104B480043EA052323F48063E8E700BF002C014013
:104B58000040014000440140002874D010B590F88E
:104B68003D30044603F0FF02002B4BD02268374942
:104B7800022384F83D308A42136848D0B2F1804F4E
:104B88004FD001F5A0518A4211D001F580618A42C7
:104B98000DD001F580618A4209D0A069E16823F04F
:104BA8008003034313606368D16293620EE0206957
:104BB800A16923F44073034323F080030B4313607C
:104BC800E368D36263689362636913630123536183
:104BD80084F8483084F83E3084F83F3084F8403018
:104BE80084F8413084F8423084F8433084F8443003
:104BF80084F8453084F8463084F8473084F83D30EE
:104C0800002010BD80F83C20FDF78AFDAEE7A068C3
:104C1800216923F07003034323F440730B43A16914
:104C2800CAE7A068216923F07003034323F44073A3
:104C38000B43A16923F080030B431360E368D3623D
:104C480063689362C2E70120704700BF002C0140EF
:104C5800704700BF002874D010B590F83D30044666
:104C680003F0FF02002B4BD022683749022384F857
:104C78003D308A42136848D0B2F1804F4FD001F5D9
:104C8800A0518A4211D001F580618A420DD001F508
:104C980080618A4209D0A069E16823F08003034358
:104CA80013606368D16293620EE02069A16923F4FE
:104CB8004073034323F080030B431360E368D3621C
:104CC80063689362636913630123536184F848300E
:104CD80084F83E3084F83F3084F8403084F841301E
:104CE80084F8423084F8433084F8443084F84530FE
:104CF80084F8463084F8473084F83D30002010BDF1
:104D080080F83C20FFF7A4FFAEE7A068216923F0F4
:104D18007003034323F440730B43A169CAE7A068F7
:104D2800216923F07003034323F440730B43A16903
:104D380023F080030B431360E368D36263689362D4
:104D4800C2E70120704700BF002C014090F83C30BA
:104D5800012B52D0024670B40223046882F83D3019
:104D6800012082F83C00A36848680D6823F07003AE
:104D7800034323F4803323F007032B435028A36015
:104D880060D00FD960283AD070280ED1D1E90253EB
:104D9800A0682B430D6920F47F4143EA05230B43A8
:104DA800A3600FE040283DD007D90120002382F8F6
:104DB8003D0082F83C3070BC7047202802D012D9E0
:104DC8003028F2D1E36823F04003E360E368002170
:104DD800012523F48043E36082F83D5082F83C10BB
:104DE800084670BC704730F01003EBD00120002358
:104DF80082F83D0082F83C30DDE702207047206AE7
:104E08000B698D6820F010002062A16921F47041BF
:104E180041EA0331236AA16123F0A00343EA0513A1
:104E28002362CFE7052DC0D0256A206A0E6920F0DD
:104E380001002062A36923F0F00343EA0613A3618B
:104E48002562BFE788680D69216A21F00A010143DC
:104E5800206A20F001002062A36923F0F00343EAEE
:104E68000513A3612162ADE7036A23F0100303620F
:104E7800036A70B4446882690D6822F0807222F473
:104E8800E64242EA05228D6823F0200343EA05132F
:104E9800114DA84218D0114DA84206D0104DA84275
:104EA80003D005F58065A84207D1D1E9056524F44A
:104EB800406446EA050C44EA8C044968446082610F
:104EC80070BC816303627047CD6823F0800343EAB6
:104ED800051323F04003E8E7002C0140004001409F
:104EE8000044014090F83C30012B00F01F81012361
:104EF80070B504460D4680F83C30142A16D8DFE811
:104F080012F059001500150015006E001500150067
:104F180015008400150015001500990015001500EE
:104F28001500D8001500150015001A00002384F894
:104F38003C30012070BD03682E681A6A22F4801282
:104F48001A62196A58685A6D22F0807222F4E04297
:104F580042EA0622AE6821F4001141EA0651744E75
:104F6800B3420BD006F5A056B34207D006F58066CB
:104F7800B34203D006F58066B34204D16E6920F4CB
:104F8800802040EA862058605A656A68DA651962A6
:104F9800596D2D6941F400615965596D21F480619D
:104FA80059655A6D42EA05225A65002384F83C3057
:104FB800002070BD0068FFF757FD236828699969CC
:104FC80041F008019961996921F0040199619A6990
:104FD80002439A61002384F83C30002070BD0068C9
:104FE800FFF742FF23682869996941F400619961D4
:104FF800996921F4806199619A6942EA00229A616B
:10500800002384F83C30002070BD0068FFF766FD7F
:1050180023682869D96941F00801D961D96921F063
:105028000401D961DA690243DA61002384F83C306B
:10503800002070BD03682E681A6A22F480521A6232
:10504800196A5868DA6922F0807222F4E64242EA64
:105058000622AE6821F4005141EA0631344EB342CB
:105068000BD006F5A056B34207D006F58066B342CA
:1050780003D006F58066B34204D16E6920F48040FF
:1050880040EA86105860DA616A681A641962D96958
:105098002D6941F40061D961D96921F48061D96130
:1050A800DA6942EA0522DA61002384F83C300020FC
:1050B80070BD03682E681A6A22F480321A62196A6F
:1050C80058685A6D22F4803222F070023243AE687A
:1050D80021F4003141EA0641154EB3420BD006F5E2
:1050E800A056B34207D006F58066B34203D006F552
:1050F8008066B34204D16E6920F4803040EA06200D
:1051080058605A656A689A651962596D2D6941F047
:1051180008015965596D21F0040159655A6D2A43F2
:105128005A65002384F83C30002070BD0220704787
:10513800002C014090F83C30012B2CD030B4026890
:10514800164D022380F83D30AA425368946818D05F
:105158000D6823F070032B43B2F1804F536002D0E7
:105168000F4B9A4204D18B6824F080041C4394604E
:105178000023012280F83D2080F83C3030BC1846DE
:1051880070474D6823F470032B430D6823F07003B8
:105198002B435360E7E70220704700BF002C014013
:1051A8000040014090F83C30012B39D010B4D1E9CF
:1051B800024323F440730246234348680C6823F4EF
:1051C8008063034323F400630869234323F4805373
:1051D8004C69034323F40053886A234323F4804330
:1051E8008C69034323F47023106843EA04430D4C8D
:1051F800A04207D00021436482F83C1008465DF8BD
:10520800044B70474C6A23F4700343EA0453CC6997
:10521800096A23F08073234323F000730B43E9E703
:1052280002207047002C01402DE9F8430446C06F66
:10523800202840F08880884609B1174612B9012015
:10524800BDE8F8831D464FF000092123C4F8849077
:10525800E367FDF7BFFBA368A4F85070B3F5805F60
:10526800A4F85270064671D0B4F8523020689BB248
:10527800ABB16A1C1CD1C2691306FCD5B8F1000F8A
:105288005CD018F8013B0385B4F85230013B9BB25F
:10529800A4F85230B4F852309BB2002BE9D1691C03
:1052A8005AD1C3695A06FCD52023E3670020C7E713
:1052B800C3691F06E2D4FDF78DFB801B854238D3F6
:1052C800002D36D023681A6852071846D1D5DA69F6
:1052D800170700F18980DA691105CAD54FF4006211
:1052E8001A6253E8002F22F4907243E8002139B182
:1052F80053E8002F22F4907243E800210029F7D1E7
:1053080003F1080252E8002F22F0010203F108001D
:1053180040E800210029F3D1226E012A5BD0002346
:105328002022C4F88020A366236684F87830C4F865
:1053380084202023E3670320BDE8F88339F8023B83
:10534800C3F308039FE70220BDE8F8832369002B15
:105358008AD1C146984687E7C3695B06A4D4FDF79E
:1053680039FB801B8542E4D3002DE2D023681A68FC
:105378005107184693D5DA69120763D4DA69170515
:105388008DD54FF400621A6253E8002F22F4907210
:1053980043E8002139B153E8002F22F4907243E822
:1053A80000210029F7D103F1080252E8002F22F06A
:1053B800010203F1080040E800210029F3D1226E20
:1053C800012AACD153E8002F22F0100243E8002153
:1053D8000029F7D1A3E753E8002F22F0100243E891
:1053E80000210029F7D19AE708221A6253E8002F12
:1053F80022F4907243E800210029F7D103F1080252
:1054080052E8002F22F0010203F1080040E80021D1
:105418000029F3D1226E012A0BD000232021082273
:10542800C4F88010A366236684F87830C4F8842012
:105438007FE753E8002F22F0100243E800210029FB
:10544800F7D1EAE708221A6253E8002F22F4907293
:1054580043E800210029F7D103F1080252E8002FA0
:1054680022F0010203F1080040E800210029F3D1ED
:10547800226E012AD1D153E8002F22F0100243E80E
:1054880000210029F7D1C8E7436ADA0710B406D526
:105498000168846A4A6822F4003222434A609C0701
:1054A80006D50168C46A4A6822F4803222434A60F9
:1054B800590706D50168046B4A6822F48022224302
:1054C8004A601A0706D50168446B4A6822F400420C
:1054D80022434A60DC0606D50168846B8A6822F498
:1054E800805222438A60990606D50168C46B8A688F
:1054F80022F4005222438A605A0609D50168046CD6
:105508004A6822F480122243B4F5801F4A600BD007
:105518001B0606D50268816C536823F400230B43ED
:1055280053605DF8044B70474A68446C22F4C0022B
:1055380022434A60ECE700BF38B500230446C0F8B0
:105548008430FDF747FA226813681B0705460DD417
:105558001368590730D40023202284F87830E26792
:105568001846C4F880202366636638BDD36998025C
:10557800EED40CE0196849071A4605D5D969080719
:105588004ED4D969090579D4DB699802E0D4FDF7CE
:1055980021FA431BB3F1007F2368EBD353E8002FB4
:1055A80022F0800243E800210029F7D1202384F863
:1055B8007810E367032038BDD3695B02CBD40DE0D4
:1055C8001A68500707D5DA69110700F18580DA698A
:1055D800120500F1AF80DB695B02BCD4FDF7FAF974
:1055E800431BB3F1007F2368EAD353E8002F22F46A
:1055F800907243E800210029F7D103F1080252E82C
:10560800002F22F0010203F1080040E800210029E0
:10561800F3D1202384F87810C4F88030032038BDF3
:1056280008221A6253E8002F22F4907243E80021FE
:105638000029F7D103F1080252E8002F22F00102F5
:1056480003F1080040E800210029F3D1226E012A65
:105658000BD0002220200821C4F88000A266226610
:1056680084F87820C4F8841098E753E8002F22F0D3
:10567800100243E800210029F7D1EAE74FF400625D
:105688001A6253E8002F22F4907243E8002100299F
:10569800F7D103F1080252E8002F22F0010203F1CA
:1056A800080040E800210029F3D1226E012A0AD01F
:1056B80000222021C4F88010A266226684F878208F
:1056C800C4F884106AE753E8002F22F0100243E878
:1056D80000210029F7D1EBE708221A6253E8002FCE
:1056E80022F4907243E800210029F7D103F108025F
:1056F80052E8002F22F0010203F1080040E80021DF
:105708000029F3D1226E012A0BD000222020082183
:10571800C4F88000A266226684F87820C4F8841051
:1057280063E753E8002F22F0100243E80021002924
:10573800F7D1EAE74FF400621A6253E8002F22F427
:10574800907243E800210029F7D103F1080252E8DA
:10575800002F22F0010203F1080040E8002100298F
:10576800F3D1226E012A0AD000222021C4F8801029
:10577800A266226684F87820C4F8841035E753E8D6
:10578800002F22F0100243E800210029F7D1EBE7AF
:10579800002800F09D8038B5C36F0446002B6BD0FD
:1057A8002368206965692422E2671968A26821F0E4
:1057B8000101196002432A43E0691D6867490243F1
:1057C80029400A431A605A68E168256A22F440525F
:1057D8000A435A609968A26921F430612A430A434E
:1057E8005F499A608B420BD05E4A93420FD002F514
:1057F800806293420BD00023C4E91A33012038BDDC
:10580800594B1B6B03F00303013B022B39D9B0F54D
:10581800004F62D0FEF7F4FFB8B90023C4E91A3389
:10582800636A2BBB23685A6822F490425A609A68CC
:1058380022F02A029A601A6842F0010220461A6091
:10584800BDE83840FFF778BE484863684FF6EF7206
:1058580000EB5300B0FBF3F0A0F110039342CAD859
:1058680022680023D060C4E91A33636A002BD9D0B8
:105878002046FFF709FED5E780F87830FCF7C8FF27
:105888008EE73B4AB0F5004FD35C43D0082BB2D823
:1058980001A252F823F000BF1D580008CF58000895
:1058A80051580008FF570008C5580008FF5700085E
:1058B800FF570008FF570008DD580008FEF764FF8F
:1058C8000028AAD0C1E7FEF7B3FF0028A5D0BCE79F
:1058D800012070474FF40040B7E7FEF791FF00281A
:1058E8009BD0430062684FF6EF7103EB5203B3FBA2
:1058F800F2F3A3F110028A423FF67DAF23F00F02C4
:1059080092B22168C3F3420313430022CB60C4E977
:105918001A2285E7082B3FF66EAF01A252F823F052
:10592800E3580008535900085F590008FF5700085A
:105938004D590008FF570008FF570008FF57000897
:1059480059590008FEF720FFC9E7FEF771FFC6E7BF
:105958004FF48033C6E7074BC4E700BFF369FFEF96
:1059680000380140004400400010024000127A0054
:10597800107C00080024F4002F4938B5D1E9002331
:10598800D1E90201FAF74AFD21F000430D46194614
:1059980025A3D3E900230446FAF776FFC8B1274ABE
:1059A800AA431AD00022002320462946FAF74EFFC0
:1059B80058BB0022002320462946FAF765FF40B16C
:1059C800204629461AA3D3E90023FAF727FD0446FF
:1059D8000D461B4BC3E9024538BDC5F313032343EA
:1059E800E0D0184912A3D3E90023D1E90001FAF75E
:1059F800E7FB0B46024629462046FAF70FFD104BF7
:105A080004460D46C3E9024538BD09A3D3E900237E
:105A180020462946FAF704FD094B04460D46C3E91A
:105A2800024538BDAFF30080182D4454FB210940CE
:105A3800182D4454FB211940000800200000F07F75
:105A480020080020F00700200F49104B104A0020C2
:105A58009FED0B7BC3E900010E4B0F4983ED007BE3
:105A680000200E4BC2E900014FF0FF421A600C49BA
:105A78000C4B0D480D4A08601A607047AFF3008060
:105A8800000000000000F07F0000F8FFF007002091
:105A9800E0070020D00700200000F0FFD807002012
:105AA800F8070020E80700200000C0FF000080FF82
:105AB800C088704770B503880D1484B00CB205FB1C
:105AC80005F203FB03F3019104FB04218B4210DA76
